{
  "address": "0x239716B6F504a3a6dA609B869934290378a7D60d",
  "abi": [
    {
      "inputs": [],
      "name": "answer",
      "outputs": [
        {
          "internalType": "int256",
          "name": "",
          "type": "int256"
        }
      ],
      "stateMutability": "view",
      "type": "function"
    },
    {
      "inputs": [],
      "name": "latestAnswer",
      "outputs": [
        {
          "internalType": "int256",
          "name": "",
          "type": "int256"
        }
      ],
      "stateMutability": "view",
      "type": "function"
    },
    {
      "inputs": [],
      "name": "latestRoundData",
      "outputs": [
        {
          "internalType": "uint80",
          "name": "",
          "type": "uint80"
        },
        {
          "internalType": "int256",
          "name": "",
          "type": "int256"
        },
        {
          "internalType": "uint256",
          "name": "",
          "type": "uint256"
        },
        {
          "internalType": "uint256",
          "name": "",
          "type": "uint256"
        },
        {
          "internalType": "uint80",
          "name": "",
          "type": "uint80"
        }
      ],
      "stateMutability": "view",
      "type": "function"
    },
    {
      "inputs": [
        {
          "internalType": "int256",
          "name": "_answer",
          "type": "int256"
        }
      ],
      "name": "setAnswer",
      "outputs": [],
      "stateMutability": "nonpayable",
      "type": "function"
    }
  ],
  "transactionHash": "0x49716e6885664b6235de4ee8c0e0f0373c210b6fbd4fb289ffcf671a76b11baa",
  "args": [],
  "numDeployments": 1,
  "solcInputHash": "87f006d640e347f3480c2b6072201a00",
  "bytecode": "0x608060405234801561001057600080fd5b50610165806100206000396000f3fe608060405234801561001057600080fd5b506004361061004c5760003560e01c806350d25bcd1461005157806385bb7d691461006857806399213cd814610071578063feaf968c14610086575b600080fd5b6000545b6040519081526020015b60405180910390f35b61005560005481565b61008461007f3660046100ef565b600055565b005b61008e6100c2565b604080516001600160501b03968716815260208101959095528401929092526060830152909116608082015260a00161005f565b6000806000806000806000546000603c426100dd9190610108565b92989197509550909350600092509050565b60006020828403121561010157600080fd5b5035919050565b8181038181111561012957634e487b7160e01b600052601160045260246000fd5b9291505056fea2646970667358221220e7a8b927e1f6dfdbdc5f1e343ba6fe44c400c2b3ba2cbcfdb72608ee49bac2c764736f6c63430008110033",
  "libraries": {},
  "devdoc": {
    "kind": "dev",
    "methods": {},
    "version": 1
  },
  "userdoc": {
    "kind": "user",
    "methods": {},
    "version": 1
  },
  "storageLayout": {
    "storage": [
      {
        "astId": 47745,
        "contract": "contracts/mock/MockPriceFeed.sol:MockPriceFeed",
        "label": "answer",
        "offset": 0,
        "slot": "0",
        "type": "t_int256"
      }
    ],
    "types": {
      "t_int256": {
        "encoding": "inplace",
        "label": "int256",
        "numberOfBytes": "32"
      }
    }
  }
}